:020000040800F2
:10000000200D00205D0300084308000837070008A2
:1000100041080008D1050008AD0C000800000000F0
:10002000000000000000000000000000290200089D
:10003000D305000800000000D502000849030008AD
:1000400077030008770300087703000877030008A8
:100050007703000877030008770300087703000898
:100060007703000877030008770300087703000888
:100070007703000877030008770300087703000878
:100080007703000877030008770300087703000868
:100090007703000877030008770300087703000858
:1000A0007703000877030008770300087703000848
:1000B0007703000877030008770300087703000838
:1000C0007703000877030008770300087703000828
:1000D0007703000877030008770300087703000818
:1000E0007703000877030008770300087703000808
:1000F00077030008770300087703000877030008F8
:1001000077030008770300087703000877030008E7
:1001100077030008770300087703000877030008D7
:1001200077030008770300087703000877030008C7
:1001300077030008770300087703000877030008B7
:1001400077030008770300087703000877030008A7
:100150007703000877030008770300087703000897
:100160007703000877030008770300087703000887
:100170007703000877030008770300087703000877
:100180007703000877030008770300087703000867
:100190007703000877030008770300087703000857
:1001A000770300087703000877030008DFF80CD016
:1001B00000F0E6F800480047110F0008200D00206D
:1001C00080F309887047EFF309807047684680F331
:1001D000098804480078C00714BF0220032080F378
:1001E00014887047A0180008DFF818C0EFF30583E3
:1001F0001B0618BF6047EFF31483DB0708BF604797
:1002000000DF7047690F0008DFF818C0EFF30583BF
:100210001B0618BF6047EFF31483DB0708BF604776
:1002200000DF704719110008EFF30980816911F8A8
:10023000021CC9BB10B590E80F10E047BDE81040A4
:10024000EFF3098C204B93E80600914229D081B14D
:100250000CB41EF0100F06BF2CED108A03230123EF
:1002600081F826302CE9F00FC1F82CC001F024F9F8
:100270000CBC1A60D2F82CC0BCE8F00F92F8263003
:1002800013F0020F1ABFBCEC108A6FF0120E6FF061
:10029000020E8CF3098813F0010F08BF704792F823
:1002A0002500CCF80000704710B5084A126891424A
:1002B00009D8074C54F8214090E80F10A047EFF3FD
:1002C000098C8CE80F0010BD44000020A403000836
:1002D000A403000810B501F017F8BDE81040194B51
:1002E00093E80600914208BF70470CB4EFF3098C05
:1002F0001EF0100F06BF2CED108A0223002381F898
:1003000026302CE9F00FC1F82CC001F0D5F80CBC58
:100310001A60D2F82CC0BCE8F00F92F8263013F027
:10032000020F1ABFBCEC108A6FF0120E6FF0020EB3
:100330008CF3098813F0010F1CBF92F82530CCF81C
:10034000003070474400002010B501F07FF9C4E789
:1003500010B500F007FE01F079F9BEE706488047C6
:1003600006480047FEE7FEE7FEE7FEE7FEE7FEE79A
:10037000FEE7FEE7FEE7FEE71D0B0008AD01000803
:10038000064C074D06E0E06840F0010394E80700E2
:1003900098471034AC42F6D3FFF70CFFBC180008A6
:1003A000DC1800080000000010B500230D4A4FF0D3
:1003B00001110D48DFF834C000DF0D4C2060002330
:1003C0000C4A0D490D48DFF824C000DF60600A497F
:1003D00000230B4A491E0B48DFF810C000DFA06065
:1003E00010BD0000A801002009040008CD16000877
:1003F00024000020A8020020030001007D04000862
:10040000A803002035040008084C0221204600F013
:100410008EF96420DFF818C000DF0221204600F0CA
:1004200088F96420DFF808C000DFEEE7000402402E
:10043000C5100008094D4FF4FA740121284600F058
:1004400076F92046DFF818C000DF0121284600F0C9
:1004500070F92046DFF808C000DFEEE70004024034
:10046000C5100008FFF7A0FF00F028FD0A20DFF804
:1004700008C000DFF8E70000C51000081E4C36E099
:10048000012806D0042808D007281AD00A282AD123
:100490001BE01AA000F00CFC25E01EA000F008FCF8
:1004A000206800281FD0DFF894C000DF18B124A016
:1004B00000F0FEFB17E00020206028A000F0F8FB11
:1004C00011E02DA000F0F4FB0DE032A000F0F0FBF5
:1004D000206840B900233A4A4FF001113948DFF84B
:1004E000E8C000DF20601420DFF8E0C000DF00F08B
:1004F00089FC0028F7D0C3E7240000204B45595F52
:100500005550BCFCB0B4CFC2A3AC525458B2E2CAEE
:10051000D40D0A004B45595F444F574EBCFCB0B454
:10052000CFC2A3ACC9BEB3FDC8CECEF148616E64E4
:100530006C655461736B4C45440D0A003517000817
:10054000C8CECEF14170705461736B4C4544C9BE46
:10055000B3FDCAA7B0DC0D0A00000000C8CECEF182
:100560004170705461736B4C4544C9BEB3FDB3C94F
:10057000B9A60D0A000000004B45595F4C45465492
:10058000BCFCB0B4CFC2A3AC525458B2E2CAD40D32
:100590000A0000004B45595F4C454654BCFCB0B4C2
:1005A000CFC2A3ACD6D8D0C2B4B4BDA8C8CECEF109
:1005B0004170705461736B4C45440D0A000000009B
:1005C000A801002009040008CD160008C510000885
:1005D000FEE7704770B586B00121084600F082F949
:1005E0000121102000F08CF900248DF81640012024
:1005F0008DF8170002258DF815508DF81450400223
:1006000004901E4E04A9304600F03CF88DF81450BA
:100610006902049104A9304600F034F807220A2147
:10062000304600F06DF807220921304600F068F8E6
:100630004FF4E1300090ADF80440ADF80640ADF85D
:100640000840ADF80C400C20ADF80A000C4C69468F
:10065000204600F0C9FA00F0F5F8012240F22441EA
:10066000204600F0A6FA01224021204600F090FA30
:100670000121204600F080FA06B070BD0000024063
:10068000001001402DE9F041002201274FF0030C3A
:1006900007FA02F50B682B40AB422CD106685300D9
:1006A0000CFA03F4A64306600E79D0F800809E4051
:1006B00046EA080606600E79012E01D0022E12D1FC
:1006C0008668A64386604E79D0F808809E4046EA48
:1006D000080686604668AE43466045688E79964057
:1006E000B6B235434560C568A543C560CC799C402A
:1006F000C3681C43C460521C102AC9D3BDE8F081F2
:1007000010B54B07DB0E9A40C90800EB8100016A67
:100710000F249C40A1430162016A1143016210BD94
:100720000246002012690A4200D00120704741832E
:10073000704701837047FEE710B504210348FFF7B7
:10074000EFFF08B1002010BD012010BD001C0240C9
:100750001CB50121852000F0C5F800208DF80400AB
:1007600003208DF8050002208DF807000124009475
:1007700069460D48FFF786FF8DF80740042000907A
:100780000A4C69462046FFF77DFF4FF40051009167
:1007900069460748FFF776FF082100916946204621
:1007A000FFF770FF1CBD000000000240001C02406B
:1007B0000008024010B54FF400510448FFF7B0FFA5
:1007C00008B1002010BD012010BD0000000802404B
:1007D00010B508210348FFF7A3FF08B1002010BDA2
:1007E000012010BD001C024010B501210448FFF794
:1007F00097FF012801D0002010BD012010BD00008E
:10080000000002407CB50121022000F06BF80220BC
:10081000009001248DF8044000208DF806008DF82A
:1008200007408DF80500054D69462846FFF72AFF69
:10083000009469462846FFF725FF7CBD000402406E
:10084000FEE7704708B525208DF8000009208DF8D7
:10085000010000208DF8020001208DF80300684699
:1008600000F002F808BD000030B50F23C278012562
:100870000178002A1FD0154A126802F4E062C2F51E
:10088000E062C2F30722C2F10404D3404278A240DE
:1008900084781C401443220101F1E02181F80024F6
:1008A000007800F01F018D404009800000F1E02039
:1008B000C0F8005130BD01F01F008540480980009C
:1008C00000F1E020C0F8805130BD00000CED00E0E8
:1008D0000249084302490860704700000000FA0519
:1008E0000CED00E0054A002903D0116801431160B6
:1008F0007047116881431160704700003038024032
:10090000054A002903D0116801431160704711683E
:1009100081431160704700004438024070B5244B99
:10092000196801F00C01234C00291ED0224E042925
:100930001DD008291DD00460196801F0F0010909D3
:100940001E4A545C0168E14041601C6804F4E054B4
:10095000A40A145D21FA04F484601B6803F4604364
:100960005B0BD25CD140C16070BD0460E4E70660FF
:10097000E2E70F4A121F1168C1F38055116801F0B8
:100980003F0135B1B6FBF1F11468C4F3881461433B
:1009900005E0B4FBF1F11468C4F3881461431268F4
:1009A000C2F30142521C5200B1FBF2F10160C3E7F5
:1009B000083802400024F40040787D011400002033
:1009C0001CB50021019100912E4A106840F480303E
:1009D00010604FF4A043106800F4003000900198BC
:1009E000401C0190009810B901989842F3D110680A
:1009F000800302D50120009000E0009100980128BA
:100A00003FD120484030016841F0805101601E49CB
:100A1000086840F4404008601A48083003680360E2
:100A2000036843F400430360036843F4A053036086
:100A3000041F164B2360136843F080731360136820
:100A40009B01FCD50A6842F480320A604A68D203EE
:100A5000FCD50A6842F400320A604A689203FCD569
:100A60000B4A40F205711160016821F00301016039
:100A7000016841F0020101600168C1F381010229AE
:100A8000FAD11CBD0038024000700040195A4007DE
:100A9000003C024070B51D4E306800F00C001C4B4D
:100AA0001C4900280FD01C4D04280ED008280ED059
:100AB0000B603068174AC0F30310121D105C0A68FF
:100AC000C2400A6070BD0B60F3E70D60F1E70F4AAA
:100AD000121F1068C0F38054106800F03F0034B15A
:100AE000B5FBF0F01368C3F38813584305E0B3FB7C
:100AF000F0F01368C3F3881358431268C2F301423D
:100B0000521C5200B0FBF2F00860D2E708380240F5
:100B10000024F4000000002040787D0110B5124848
:100B2000016841F4700101601048016841F0010161
:100B300001600E4A00210832116002680C4B1A4015
:100B40000260031D0B4A1A60026822F480220260D0
:100B500006480C300160FFF733FF03494FF0006097
:100B60008039086010BD000088ED00E000380240C8
:100B7000FFFFF6FE10300024002904D0818941F4E3
:100B8000005181817047818921F400518181704732
:100B9000002A03D0828A0A4382827047828A8A436B
:100BA000828270470246002012880A4200D001204B
:100BB000704710B540F66A13C1F3421301F01F04E9
:100BC0000121A140012B07D0022B07D014303AB1EC
:100BD00002680A43026010BD0C30F8E71030F6E7F7
:100BE00002688A43026010BD7FB504460D46208A24
:100BF00020F44051E88808432082A08941F20C612A
:100C00008843A9882A8911436A8902431143A18133
:100C1000A08A20F44071A8890843A0826846FFF7A3
:100C20007DFE1E48844202D01D48844201D10398B3
:100C300000E00298A189090408D500EBC00101EB8E
:100C4000001029684900B0FBF1F007E000EBC0019B
:100C500001EB001029688900B0FBF1F06422B0FBC1
:100C6000F2F109010B096FF018056B4300EB8300EB
:100C7000A3891D044FF0320307D503EBC000B0FB7E
:100C8000F2F000F00700084306E003EB0010B0FBB1
:100C9000F2F000F00F00084320817FBD00100140FA
:100CA00000140140C1F3080181807047FEE7000095
:100CB000014A024900F038B8ED0E00085800002043
:100CC00002E008C8121F08C1002AFAD17047704715
:100CD000002001E001C1121F002AFBD1704710B5AE
:100CE000002A06DA22F00042D21D22F00703102269
:100CF00003E0D21C22F003030C2223B19C188C4287
:100D000003D9012010BD012010BD0244026001443E
:100D100041608360C91AD018884202D9002010604F
:100D200010BD10600246F6E72DE9F04116460F4669
:100D30000446002503E03946B047641C6D1C20784A
:100D40000028F8D12846BDE8F08100002DE9F041E7
:100D500006462B4800EB0614002C0AD0206880477A
:100D6000052206EB46050027B0B32179052902D2FA
:100D70002271BDE8F0810A2902D2491C2171F8E7ED
:100D8000A07A06EB4606761C20B90120A072F0B2CC
:100D900000F09EF821890029EBD0E08888420BD230
:100DA000401C80B2E08021898842E2D1ED1CE8B28B
:100DB000BDE8F04100F08CB8207B0028D9D0E07A63
:100DC000401CC0B2E072217B8842D2D3E772F0B2FD
:100DD000BDE8F04100F07CB82079052801D92271E6
:100DE0000BE010B1401E207107E0A07A012804D169
:100DF000A772AD1CE8B200F06BF8E780E772B8E7C5
:100E00005C000020074A917AD07A814201D100200B
:100E10007047505C491CC9B291720A29F8D300216D
:100E2000917270479C00002010B54FF44070FFF79E
:100E30004FFDFFF72FFEFFF7E5FC00F004F8BDE8DB
:100E40001040FFF7C7BB10B500F004F8BDE8104034
:100E5000FFF77EBC30B5144800238372C3720021B3
:100E60006424A0F14002022502EB01100481057107
:100E700083720373C372491CC9B20429F4D3148169
:100E80000520107314831077148582F82C001487C2
:100E900082F83C0005481060054810610548106262
:100EA0000548106330BD00009C000020E9070008E1
:100EB00039070008B5070008D107000810B500245D
:100EC0002046FFF743FF641CE4B2042CF8D310BDA6
:100ED0000549CA7A8854C87A401CC0B2C8720A2828
:100EE00001D30020C87270479C00002070B50446F2
:100EF000064DE1B22846FFF7D5FE80212846FFF7D0
:100F000051FE0028F9D0204670BD000000100140BD
:100F1000FFF78AFFFFF75AF9034A04490448DFF84C
:100F200014C000DFFEE70000A8000020040001005C
:100F300065040008ED140008FEE7FEE707480168B5
:100F40004FF0E020416100218161072101610448E7
:100F5000016841F07F410160401770479C1800080C
:100F600020ED00E070477047014651E8000F28B1BE
:100F7000036841E80032002AF7D17047BFF32F8F92
:100F80007047000070B50C46002812D04FF6FF7174
:100F9000084D884204D22A680146104600F0F2F952
:100FA00028684470044800F0DBF8BDE8704000F0A9
:100FB00095BA70BD44000020B408002010B50F4859
:100FC0000D4A41680E48136800688B4204D01160D6
:100FD000D388411E19449180918880B281420AD100
:100FE00000201060054800F0BBF80146BDE8104045
:100FF000024800F0EFB910BD34000020B408002012
:101000004C00002070B51A4EF06800282ED0B08A2F
:10101000401EB082002523E0A06838B161684160BD
:10102000606810B1A16881606560A56010482146C4
:10103000183800F0CFF9A08AB0826078042804D173
:101040000C49E08A09880844A0820120607084F875
:101050002500E068F060E06808B10661E5602561A0
:10106000B08A002802D1F468002CD5D170BD0000F0
:10107000CC0800204C00002070B50446002C0FD096
:101080000E4DA17801262868827891420FD900F090
:10109000BFF9286846702046BDE8704000F01EBACF
:1010A000074800F05DF8BDE8704000F017BA6670C0
:1010B0002146BDE87040024800F08CB94400002091
:1010C000B40800200321FFF75DBF000010B50446FF
:1010D000208B08432083618B6278062A02D131EA93
:1010E000000306D0052A14D1084212D001EA0002FA
:1010F000628388432083204600F094F901206070C9
:10110000022084F825002146BDE81040014800F087
:1011100061B910BDB4080020814202D342688A42FE
:1011200001D80120704750E8002F0A6040E8001203
:10113000002AF8D10020704701200749074A05E03E
:10114000431E51F82330002B04D0401C13889842D2
:10115000F6D90020704700009C0800209018000875
:101160000146486842684A600A780023022A05D08E
:10117000012A03D0032A01D04360704742680AB1B4
:10118000916043608360704770B504461546002047
:10119000207001226270A17084F824106060A06049
:1011A000E06020612062A082E0822083608384F876
:1011B000250084F82600208D002803D10448FFF77D
:1011C000D3FE206329462046BDE8704000F00EB8EB
:1011D0000806002003480021016003490988C180F6
:1011E00070470000340000209818000810B5028DE8
:1011F0009208002A03D10F4A1288C2F38D02036BB2
:1012000003EB82035A0700D51B1F403B4FF080724F
:10121000DA6399630022002443F82240521C0E2A0C
:10122000FAD3C2691A62C3624163006B024901606A
:1012300010BD000094180008A52E5AE22DE9F041D7
:10124000044688466068002704F10C05002802D097
:10125000617802291DD008B1A089B8B3A089E189BD
:10126000884249D2208904EB8000C0F81080D5E87C
:101270005F0F401C81B2C5E8501F0028F7D12089BC
:10128000401C80B22081E189884200D12781BDE8DD
:10129000F08167702046FFF763FF064686F82570E9
:1012A0002189F06904EB81010861D5E85F0F401CDA
:1012B00081B2C5E8501F0028F7D12089401C80B2B8
:1012C0002081E18988420CD127810AE0FFE720468E
:1012D000FFF746FF0646F069C0F80080042186F853
:1012E000251001207070304600F09CF83146BDE8B2
:1012F000F041044800F06EB8BDE8F0410320FFF76C
:101300001BBE0000B408002070B51B480121026814
:101310005170006800F07CF8184D6C7817E005EB10
:10132000C40148680278EAB1012A20D000F0A8F888
:10133000E878641C844200D100241048801CD0E866
:101340004F1F491ECAB2C0E8412F0029F7D1A87823
:101350000028E4D16C700A48FFF702FFBDE8704036
:1013600000F0BCB8098989B2FFF7B0FEE0E78968F0
:10137000FFF764FFDCE700004400002018080020AD
:10138000B408002010B5124AD368002B02D01346CF
:101390009B8A06E0002313E0D4688CB12246948A2D
:1013A00023448B42F8D3D468C460D0600261C4681F
:1013B00004B12061591A8182908A401A908210BD2E
:1013C0000024C460D0600261C91A9182848210BD79
:1013D000CC08002030B500250278022A03D0012A6B
:1013E00001D0032A00D101258B78426801E0104624
:1013F000526812B194789C42F9D24A6041601DB1A2
:1014000002B19160886030BD0020886030BD00006E
:1014100003494A68426000228260486070470000C9
:10142000B408002010B5016900290ED0C268CA6056
:10143000C36800223BB18B8A848A23448B82C368B1
:101440001961C26000E08A82026110BD81680029D2
:1014500007D042684A604168002901D080688860EE
:101460007047064906E04A68824202D140684860F7
:10147000704711460029F6D170470000B4080020DB
:1014800010B54168002910D0FFF76AFE04462046D7
:10149000FFF7C8FF01206070032084F82500214673
:1014A000BDE810400348FFF795BF4188491C4180C3
:1014B00010BD0000B408002006480068D0E90B10F9
:1014C000814203D300680449884202D00120FFF71B
:1014D00033BD704744000020A52E5AE202494860FF
:1014E0000221417070470000440000202DE9F047C0
:1014F00005460E461746002000244249424A02E0B3
:1015000041F82040401C13889842F9D33F483822C4
:1015100001883F48FFF7E3FB3E48008880B240F077
:1015200000423D4801683D48FFF7D9FB3C4808228E
:1015300001883C480068FFF7D2FBDFF8EC904FF0E1
:10154000FF0889F80380A9F82840384A0021484656
:10155000FFF71AFE364804210170446035480170D7
:10156000C46004618482D9F82C002030FEF728FE84
:101570003148C0F80090022089F801002F4804701B
:1015800044702F490978C170FFF724FE2D48016887
:1015900041F47F01016000684FF07F4101EA0020C3
:1015A000C043B0FA80F0C0F1080026491439096838
:1015B000C1F30221814200DB481C224A121F13683A
:1015C0006FF08071814063F317011160FFF7B6FC83
:1015D0001D49086000280DDB00F1E02181F800843E
:1015E00000F01F02012191404011800000F1E02035
:1015F000C0F800113A4631462846BDE8F0470023BE
:1016000000F064B89C08002090180008AC1800088E
:10161000A804002094180008B0180008080600204C
:10162000B618000830000020E40800203B0F000836
:10163000B4080020CC080020440000201808002036
:10164000B418000820ED00E04000002010B50C4860
:101650000121026851700068FFF7DAFEFFF7AEFC67
:1016600008480168491C0160FFF7CCFC00F00EF847
:101670000548FFF775FDBDE81040FFF72FBF0000DC
:10168000440000204C000020B408002070B50D4D2F
:101690002868002815D0A888401EA8800A4E0AE0B5
:1016A000E088FFF760FCA088A880206828602146B9
:1016B0003068FFF731FDA888002802D12C68002C83
:1016C000EED170BD50000020300000202DE9F04127
:1016D00007460D461646984615F0FF0F00D16D1CC3
:1016E0001148FFF741FC044620001BD02663280A5E
:1016F0002085C4F81C80E9B23A462046FFF744FD35
:10170000FFF71AFD05460949681E41F82040E570BB
:101710002046FFF7B1FC0648006880F825502846AF
:10172000BDE8F0810020FBE7A80400209C08002011
:10173000440000202DE9F05FDFF840A1DFF8389188
:1017400005270126DAF800104FF00008002802D023
:10175000CA7882423ED181F80180FEF734FDDAF882
:101760000010C862FFF7A8FEDAF80000046A18E06B
:101770006068A8B12046FFF7F3FC054685F82570A0
:101780002846FFF74FFE6E7029463D48FFF722FEC0
:101790006680A560296AE16020462C62C46800E08A
:1017A000E468002CE4D1DAF80000C178491E49F859
:1017B0002180016B3348FFF7AFFCDAF80010C1F865
:1017C00030803148FFF7A8FCCAF800800020FFF7FE
:1017D00053FC4EE02D49098888420FD8A0F1010B37
:1017E00059F82BA0BAF1000F08D05046FFF72EFE93
:1017F0005046FFF717FEDAF820401BE0FF20BDE857
:10180000F09F6068A8B12046FFF7AAFC054685F85E
:1018100025702846FFF706FE6E7029461848FFF728
:10182000D9FD6680A560296AE16020462C62C46803
:1018300000E0E468002CE4D149F82B801148DAF884
:101840003010FFF769FCCAF8308051460E48FFF7A8
:1018500063FC0B48094940688278086883789A429B
:1018600007D9467009680648FFF7B4FD0020FFF766
:1018700003FC0020C3E700009C0800204400002077
:10188000B408002008060020A804002090180008D2
:101890000600000000020601050001001FBF020053
:1018A00001000000E8030000000000005C010000EF
:1018B000100200001000000049000400DC180008BD
:1018C000000000205C000000C00C0008381900086F
:1018D0005C000020C40C0000D00C00080095BA0A7F
:1018E00000000000000000000102030406070809D0
:1018F00000000000010203040102030406070809B6
:1019000000000000000000000000000000000000D7
:1019100000000000000000000000000000000000C7
:1019200000000000000000000000000000000000B7
:081930000000000000000000AF
:04000005080001AD41
:00000001FF
