:020000040800F2
:10000000D00C00205D03000877060008DD0500081D
:100010007506000885040008CD0A000800000000ED
:10002000000000000000000000000000290200089D
:100030008704000800000000D502000849030008FA
:1000400077030008770300087703000877030008A8
:100050007703000877030008770300087703000898
:100060007703000877030008770300087703000888
:100070007703000877030008770300087703000878
:100080007703000877030008770300087703000868
:100090007703000877030008770300087703000858
:1000A0007703000877030008770300087703000848
:1000B0007703000877030008770300087703000838
:1000C0007703000877030008770300087703000828
:1000D0007703000877030008770300087703000818
:1000E0007703000877030008770300087703000808
:1000F00077030008770300087703000877030008F8
:1001000077030008770300087703000877030008E7
:1001100077030008770300087703000877030008D7
:1001200077030008770300087703000877030008C7
:1001300077030008770300087703000877030008B7
:1001400077030008770300087703000877030008A7
:100150007703000877030008770300087703000897
:100160007703000877030008770300087703000887
:100170007703000877030008770300087703000877
:100180007703000877030008770300087703000867
:100190007703000877030008770300087703000857
:1001A000770300087703000877030008DFF80CD016
:1001B00000F0E6F800480047550B0008D00C00207E
:1001C00080F309887047EFF309807047684680F331
:1001D000098804480078C00714BF0220032080F378
:1001E0001488704754130008DFF818C0EFF3058334
:1001F0001B0618BF6047EFF31483DB0708BF604797
:1002000000DF7047AD0B0008DFF818C0EFF305837F
:100210001B0618BF6047EFF31483DB0708BF604776
:1002200000DF70475D0D0008EFF30980816911F868
:10023000021CC9BB10B590E80F10E047BDE81040A4
:10024000EFF3098C204B93E80600914229D081B14D
:100250000CB41EF0100F06BF2CED108A03230123EF
:1002600081F826302CE9F00FC1F82CC000F02CFFEB
:100270000CBC1A60D2F82CC0BCE8F00F92F8263003
:1002800013F0020F1ABFBCEC108A6FF0120E6FF061
:10029000020E8CF3098813F0010F08BF704792F823
:1002A0002500CCF80000704710B5084A126891424A
:1002B00009D8074C54F8214090E80F10A047EFF3FD
:1002C000098C8CE80F0010BD44000020A403000836
:1002D000A403000810B500F039FEBDE81040194B2A
:1002E00093E80600914208BF70470CB4EFF3098C05
:1002F0001EF0100F06BF2CED108A0223002381F898
:1003000026302CE9F00FC1F82CC000F0DDFE0CBC4B
:100310001A60D2F82CC0BCE8F00F92F8263013F027
:10032000020F1ABFBCEC108A6FF0120E6FF0020EB3
:100330008CF3098813F0010F1CBF92F82530CCF81C
:10034000003070474400002010B500F087FFC4E77C
:1003500010B500F029FC00F081FFBEE70648804799
:1003600006480047FEE7FEE7FEE7FEE7FEE7FEE79A
:10037000FEE7FEE7FEE7FEE751090008AD010008D1
:10038000064C074D06E0E06840F0010394E80700E2
:1003900098471034AC42F6D3FFF70CFF70130008F7
:1003A000901300080000000010B500230D4A4FF024
:1003B00001110D48DFF834C000DF0D4C2060002330
:1003C0000C4A0D490D48DFF824C000DF60600A497F
:1003D00000230B4A491E0B48DFF810C000DFA06065
:1003E00010BD00005801002009040008DD120008BB
:1003F00024000020580200200300010075040008BA
:100400005803002035040008084C0221204600F063
:10041000E1F86420DFF818C000DF0221204600F078
:10042000DBF86420DFF808C000DFEEE700040240DC
:10043000090D0008084C0121204600F0CBF864208B
:10044000DFF818C000DF0121204600F0C5F8642065
:10045000DFF808C000DFEEE700040240090D0008E5
:10046000FFF7A2FF6420DFF808C000DFFAE7000012
:10047000090D00086420DFF808C000DFFAE700007B
:10048000090D0008FEE7704770B586B001210846E7
:1004900000F042F90121102000F04CF900248DF801
:1004A000164001208DF8170002258DF815508DF8A3
:1004B0001450400204901E4E04A9304600F03CF84F
:1004C0008DF814506902049104A9304600F034F804
:1004D00007220A21304600F06DF807220921304634
:1004E00000F068F84FF4E1300090ADF80440ADF84A
:1004F0000640ADF80840ADF80C400C20ADF80A00FD
:100500000C4C6946204600F083FA00F0B5F8012251
:1005100040F22441204600F05FFA012240212046AB
:1005200000F050FA0121204600F040FA06B070BDFC
:1005300000000240001001402DE9F0410022012797
:100540004FF0030C07FA02F50B682B40AB422CD19D
:10055000066853000CFA03F4A64306600E79D0F83F
:1005600000809E4046EA080606600E79012E01D002
:10057000022E12D18668A64386604E79D0F8088094
:100580009E4046EA080686604668AE434660456877
:100590008E799640B6B235434560C568A543C560BF
:1005A000CC799C40C3681C43C460521C102AC9D338
:1005B000BDE8F08110B54B07DB0E9A40C90800EB8F
:1005C0008100016A0F249C40A1430162016A11432A
:1005D000016210BD4183704701837047FEE7000050
:1005E0001CB5012142F2810000F096F800208DF840
:1005F000040001208DF80700009069460B48FFF7C2
:100600009BFF042000900A4C69462046FFF794FFA8
:100610004FF40051009169460648FFF78DFF08210D
:10062000009169462046FFF787FF1CBD000002408D
:10063000001C0240000802407CB50121022000F0AD
:100640006BF80220009001248DF8044000208DF802
:1006500006008DF807408DF80500054D69462846CF
:10066000FFF76AFF009469462846FFF765FF7CBDE7
:1006700000040240FEE7704708B525208DF8000011
:1006800009208DF8010000208DF8020001208DF86E
:100690000300684600F002F808BD000030B50F23E3
:1006A000C27801250178002A1FD0154A126802F489
:1006B000E062C2F5E062C2F30722C2F10404D34053
:1006C0004278A24084781C401443220101F1E021C9
:1006D00081F80024007800F01F018D40400980005F
:1006E00000F1E020C0F8005130BD01F01F0085404E
:1006F0004809800000F1E020C0F8805130BD0000C2
:100700000CED00E002490843024908607047000010
:100710000000FA050CED00E0054A002903D011683D
:1007200001431160704711688143116070470000F8
:1007300030380240054A002903D011680143116096
:1007400070471168814311607047000044380240CF
:1007500070B5244B196801F00C01234C00291ED000
:10076000224E04291DD008291DD00460196801F00B
:10077000F00109091E4A545C0168E14041601C68AF
:1007800004F4E054A40A145D21FA04F484601B68A4
:1007900003F460435B0BD25CD140C16070BD046068
:1007A000E4E70660E2E70F4A121F1168C1F38055C3
:1007B000116801F03F0135B1B6FBF1F11468C4F3E3
:1007C0008814614305E0B4FBF1F11468C4F38814A4
:1007D00061431268C2F30142521C5200B1FBF2F1B4
:1007E0000160C3E7083802400024F40040787D012E
:1007F000140000201CB50021019100912E4A1068C0
:1008000040F4803010604FF4A043106800F40030D2
:1008100000900198401C0190009810B901989842EE
:10082000F3D11068800302D50120009000E0009110
:10083000009801283FD120484030016841F08051A4
:1008400001601E49086840F4404008601A480830BA
:1008500003680360036843F400430360036843F4E0
:10086000A0530360041F164B2360136843F080738A
:10087000136013689B01FCD50A6842F480320A6059
:100880004A68D203FCD50A6842F400320A604A681A
:100890009203FCD50B4A40F205711160016821F00A
:1008A00003010160016841F0020101600168C1F3C8
:1008B00081010229FAD11CBD0038024000700040BD
:1008C000195A4007003C024070B51D4E306800F0D8
:1008D0000C001C4B1C4900280FD01C4D04280ED0C6
:1008E00008280ED00B603068174AC0F30310121DA1
:1008F000105C0A68C2400A6070BD0B60F3E70D60CF
:10090000F1E70F4A121F1068C0F38054106800F01E
:100910003F0034B1B5FBF0F01368C3F388135843BC
:1009200005E0B3FBF0F01368C3F388135843126873
:10093000C2F30142521C5200B0FBF2F00860D2E751
:10094000083802400024F4000000002040787D01B7
:1009500010B51248016841F4700101601048016847
:1009600041F0010101600E4A002108321160026865
:100970000C4B1A400260031D0B4A1A60026822F4F5
:100980008022026006480C300160FFF733FF034904
:100990004FF000608039086010BD000088ED00E075
:1009A00000380240FFFFF6FE10300024002904D07A
:1009B000818941F4005181817047818921F400517E
:1009C00081817047002A03D0828A0A43828270475D
:1009D000828A8A438282704710B540F66A13C1F357
:1009E000421301F01F040121A140012B07D0022B6B
:1009F00007D014303AB102680A43026010BD0C30CF
:100A0000F8E71030F6E702688A43026010BD000084
:100A10007FB504460D46208A20F44051E8880843FB
:100A20002082A08941F20C618843A9882A89114358
:100A30006A8902431143A181A08A20F44071A889E8
:100A40000843A0826846FFF783FE1E48844202D016
:100A50001D48844201D1039800E00298A18909044D
:100A600008D500EBC00101EB001029684900B0FB7C
:100A7000F1F007E000EBC00101EB001029688900EC
:100A8000B0FBF1F06422B0FBF2F109010B096FF049
:100A900018056B4300EB8300A3891D044FF032035C
:100AA00007D503EBC000B0FBF2F000F007000843ED
:100AB00006E003EB0010B0FBF2F000F00F0008437B
:100AC00020817FBD0010014000140140FEE702E0DC
:100AD00008C8121F08C1002AFAD1704770470020C9
:100AE00001E001C1121F002AFBD1704710B5002A96
:100AF00006DA22F00042D21D22F00703102203E0A2
:100B0000D21C22F003030C2223B19C188C4203D97F
:100B1000012010BD012010BD02440260014441606B
:100B20008360C91AD018884202D90020106010BD15
:100B300010600246F6E710B54FF44070FFF7E2FD93
:100B4000FFF7C2FEFFF778FDFFF74AFDBDE8104052
:100B5000FFF79ABCFFF7EFFFFFF738FB034A0449A2
:100B60000448DFF814C000DFFEE700005800002052
:100B70000400010061040008FD100008FEE7FEE724
:100B8000074801684FF0E0204161002181610721A1
:100B900001610448016841F07F41016040177047DE
:100BA0005013000820ED00E070477047014651E8FF
:100BB000000F28B1036841E80032002AF7D17047DE
:100BC000BFF32F8F7047000070B50C46002812D07D
:100BD0004FF6FF71084D884204D22A68014610463C
:100BE00000F0F2F928684470044800F0DBF8BDE832
:100BF000704000F07BBA70BD440000206408002003
:100C000010B50F480D4A41680E48136800688B42C2
:100C100004D01160D388411E19449180918880B21C
:100C200081420AD100201060054800F0BBF801465F
:100C3000BDE81040024800F0EFB910BD34000020BC
:100C4000640800204C00002070B51A4EF06800289F
:100C50002ED0B08A401EB082002523E0A06838B1B3
:100C600061684160606810B1A16881606560A560DD
:100C700010482146183800F0CFF9A08AB082607879
:100C8000042804D10C49E08A09880844A082012084
:100C9000607084F82500E068F060E06808B10661E3
:100CA000E5602561B08A002802D1F468002CD5D116
:100CB00070BD00007C0800204C00002070B5044688
:100CC000002C0FD00E4DA178012628688278914221
:100CD0000FD900F0BFF9286846702046BDE8704083
:100CE00000F004BA074800F05DF8BDE8704000F07D
:100CF000FDB966702146BDE87040024800F08CB92D
:100D000044000020640800200321FFF75DBF0000BD
:100D100010B50446208B08432083618B6278062A35
:100D200002D131EA000306D0052A14D1084212D0BC
:100D300001EA0002628388432083204600F094F990
:100D400001206070022084F825002146BDE8104093
:100D5000014800F061B910BD64080020814202D34F
:100D600042688A4201D80120704750E8002F0A608B
:100D700040E80012002AF8D10020704701200749FE
:100D8000074A05E0431E51F82330002B04D0401CD5
:100D900013889842F6D90020704700004C080020C4
:100DA000441300080146486842684A600A780023F4
:100DB000022A05D0012A03D0032A01D043607047DC
:100DC00042680AB1916043608360704770B5044621
:100DD00015460020207001226270A17084F8241052
:100DE0006060A060E06020612062A082E0822083D9
:100DF000608384F8250084F82600208D002803D124
:100E00000448FFF7D3FE206329462046BDE8704022
:100E100000F00EB8B8050020034800210160034926
:100E20000988C18070470000340000204C1300087E
:100E300010B5028D9208002A03D10F4A1288C2F31E
:100E40008D02036B03EB82035A0700D51B1F403B47
:100E50004FF08072DA6399630022002443F8224045
:100E6000521C0E2AFAD3C2691A62C3624163006B34
:100E70000249016010BD000048130008A52E5AE287
:100E80002DE9F041044688466068002704F10C050E
:100E9000002802D0617802291DD008B1A089B8B31A
:100EA000A089E189884249D2208904EB8000C0F8FA
:100EB0001080D5E85F0F401C81B2C5E8501F0028A4
:100EC000F7D12089401C80B22081E189884200D17D
:100ED0002781BDE8F08167702046FFF763FF064673
:100EE00086F825702189F06904EB81010861D5E855
:100EF0005F0F401C81B2C5E8501F0028F7D1208940
:100F0000401C80B22081E18988420CD127810AE00F
:100F1000FFE72046FFF746FF0646F069C0F800806D
:100F2000042186F8251001207070304600F09CF8EE
:100F30003146BDE8F041044800F06EB8BDE8F0412C
:100F40000320FFF71BBE00006408002070B51B489B
:100F5000012102685170006800F07CF8184D6C782F
:100F600017E005EBC40148680278EAB1012A20D0F5
:100F700000F08EF8E878641C844200D10024104808
:100F8000801CD0E84F1F491ECAB2C0E8412F00297B
:100F9000F7D1A8780028E4D16C700A48FFF702FF67
:100FA000BDE8704000F0A2B8098989B2FFF7B0FE31
:100FB000E0E78968FFF764FFDCE7000044000020F9
:100FC000C80700206408002010B5124AD368002B1F
:100FD00002D013469B8A06E0002313E0D4688CB14C
:100FE0002246948A23448B42F8D3D468C460D060EC
:100FF0000261C46804B12061591A8182908A401A42
:10100000908210BD0024C460D0600261C91A918230
:10101000848210BD7C08002030B500250278022AA9
:1010200003D0012A01D0032A00D101258B78426820
:1010300001E01046526812B194789C42F9D24A609D
:1010400041601DB102B19160886030BD00208860B0
:1010500030BD000003494A68426000228260486057
:10106000704700006408002010B5016900290ED007
:10107000C268CA60C36800223BB18B8A848A234459
:101080008B82C3681961C26000E08A82026110BD70
:1010900010B54168002910D0FFF784FE04462046B1
:1010A000FFF7E2FF01206070032084F8250021464D
:1010B000BDE810400348FFF7AFBF4188491C41809D
:1010C00010BD00006408002006480068D0E90B103D
:1010D000814203D300680449884202D00120FFF70F
:1010E0004DBD704744000020A52E5AE202494860D9
:1010F0000221417070470000440000202DE9F047B4
:1011000005460E461746002000244249424A02E0A6
:1011100041F82040401C13889842F9D33F483822B8
:1011200001883F48FFF7E2FC3E48008880B240F06B
:1011300000423D4801683D48FFF7D8FC3C48082282
:1011400001883C480068FFF7D1FCDFF8EC904FF0D5
:10115000FF0889F80380A9F82840384A002148464A
:10116000FFF734FE364804210170446035480170B1
:10117000C46004618482D9F82C002030FFF720F885
:101180003148C0F80090022089F801002F4804700F
:1011900044702F490978C170FFF73EFE2D48016861
:1011A00041F47F01016000684FF07F4101EA0020B7
:1011B000C043B0FA80F0C0F108002649143909682C
:1011C000C1F30221814200DB481C224A121F13682E
:1011D0006FF08071814063F317011160FFF7D0FC5D
:1011E0001D49086000280DDB00F1E02181F8008432
:1011F00000F01F02012191404011800000F1E02029
:10120000C0F800113A4631462846BDE8F0470023B1
:1012100000F064B84C080020441300086013000874
:10122000580400204813000864130008B805002083
:101230006A13000830000020940800207F0B00088B
:10124000640800207C08002044000020C80700201B
:101250006813000820ED00E04000002010B50C48A5
:101260000121026851700068FFF7F4FEFFF7C8FC27
:1012700008480168491C0160FFF7E6FC00F00EF821
:101280000548FFF78FFDBDE81040FFF72FBF0000B6
:10129000440000204C0000206408002070B50D4D73
:1012A0002868002815D0A888401EA8800A4E0AE0A9
:1012B000E088FFF77AFCA088A88020682860214693
:1012C0003068FFF74BFDA888002802D12C68002C5D
:1012D000EED170BD50000020300000202DE9F0411B
:1012E00007460D461646984615F0FF0F00D16D1CB7
:1012F0001148FFF75BFC044620001BD02663280A38
:101300002085C4F81C80E9B23A462046FFF75EFD0E
:10131000FFF734FD05460949681E41F82040E57095
:101320002046FFF7CBFC0648006880F82550284689
:10133000BDE8F0810020FBE7580400204C080020A5
:101340004400002006000000000206010500010024
:101350001FBF020001000000E803000000000000C1
:101360005C010000100200001000000049000400B1
:10137000901300080000002058000000CE0A00086A
:10138000E813000858000020780C0000DE0A00086E
:101390000095BA0A000000000000000001020304EA
:1013A000060708090000000001020304010203040B
:1013B000060708090000000000000000000000000F
:1013C000000000000000000000000000000000001D
:1013D000000000000000000000000000000000000D
:0813E000000000000000000005
:04000005080001AD41
:00000001FF
