:020000040800F2
:10000000A81700205D0300080F050008CD040008B4
:100010000D050008450400085D060008000000000A
:10002000000000000000000000000000290200089D
:100030004704000800000000D5020008490300083A
:1000400077030008770300087703000877030008A8
:100050007703000877030008770300087703000898
:100060007703000877030008770300087703000888
:100070007703000877030008770300087703000878
:100080007703000877030008770300087703000868
:100090007703000877030008770300087703000858
:1000A0007703000877030008770300087703000848
:1000B0007703000877030008770300087703000838
:1000C0007703000877030008770300087703000828
:1000D0007703000877030008770300087703000818
:1000E0007703000877030008770300087703000808
:1000F00077030008770300087703000877030008F8
:1001000077030008770300087703000877030008E7
:1001100077030008770300087703000877030008D7
:1001200077030008770300087703000877030008C7
:1001300077030008770300087703000877030008B7
:1001400077030008770300087703000877030008A7
:100150007703000877030008770300087703000897
:100160007703000877030008770300087703000887
:100170007703000877030008770300087703000877
:100180007703000877030008770300087703000867
:100190007703000877030008770300087703000857
:1001A000770300087703000877030008DFF80CD016
:1001B00000F0E6F800480047C9060008A81700202C
:1001C00080F309887047EFF309807047684680F331
:1001D000098804480078C00714BF0220032080F378
:1001E00014887047C40E0008DFF818C0EFF30583C9
:1001F0001B0618BF6047EFF31483DB0708BF604797
:1002000000DF70471D070008DFF818C0EFF3058313
:100210001B0618BF6047EFF31483DB0708BF604776
:1002200000DF7047CD080008EFF30980816911F8FD
:10023000021CC9BB10B590E80F10E047BDE81040A4
:10024000EFF3098C204B93E80600914229D081B14D
:100250000CB41EF0100F06BF2CED108A03230123EF
:1002600081F826302CE9F00FC1F82CC000F0E4FC36
:100270000CBC1A60D2F82CC0BCE8F00F92F8263003
:1002800013F0020F1ABFBCEC108A6FF0120E6FF061
:10029000020E8CF3098813F0010F08BF704792F823
:1002A0002500CCF80000704710B5084A126891424A
:1002B00009D8074C54F8214090E80F10A047EFF3FD
:1002C000098C8CE80F0010BD1C000020A40300085E
:1002D000A403000810B500F0F1FBBDE81040194B75
:1002E00093E80600914208BF70470CB4EFF3098C05
:1002F0001EF0100F06BF2CED108A0223002381F898
:1003000026302CE9F00FC1F82CC000F095FC0CBC95
:100310001A60D2F82CC0BCE8F00F92F8263013F027
:10032000020F1ABFBCEC108A6FF0120E6FF0020EB3
:100330008CF3098813F0010F1CBF92F82530CCF81C
:10034000003070471C00002010B500F03FFDC4E7EE
:1003500010B500F0E1F900F039FDBEE7064880472E
:1003600006480047FEE7FEE7FEE7FEE7FEE7FEE79A
:10037000FEE7FEE7FEE7FEE701060008AD01000824
:10038000064C074D06E0E06840F0010394E80700E2
:1003900098471034AC42F6D3FFF70CFFE00E00088C
:1003A000000F0008000000000023054A4FF0011173
:1003B0000448DFF814C000DF0449086070470000FB
:1003C00030000020D10300084D0E0008000000207E
:1003D000084C0121204600F075F8C820DFF818C04D
:1003E00000DF0121204600F06FF8C820DFF808C0C8
:1003F00000DFEEE70004024079080008FFF7D4FFB1
:100400000D4D0E4E00244FF001084FF4FA77C5F859
:1004100004800221304600F055F83846DFF820C04D
:1004200000DF6C600221304600F04EF83846DFF8FD
:1004300010C000DFEBE700000000002000040240D5
:1004400079080008FEE770472DE9F04100220127F6
:100450004FF0030C07FA02F50B682B40AB422CD18E
:10046000066853000CFA03F4A64306600E79D0F830
:1004700000809E4046EA080606600E79012E01D0F3
:10048000022E12D18668A64386604E79D0F8088085
:100490009E4046EA080686604668AE434660456868
:1004A0008E799640B6B235434560C568A543C560B0
:1004B000CC799C40C3681C43C460521C102AC9D329
:1004C000BDE8F0814183704701837047FEE700007B
:1004D0007CB50121022000F01BF8022000900124CD
:1004E0008DF8044000208DF806008DF807408DF847
:1004F0000500054D69462846FFF7A6FF00946946AA
:100500002846FFF7A1FF7CBD00040240FEE77047CC
:10051000054A002903D01168014311607047116832
:100520008143116070470000303802401CB5002143
:10053000019100912E4A106840F4803010604FF411
:10054000A043106800F4003000900198401C019016
:10055000009810B901989842F3D11068800302D531
:100560000120009000E00091009801283FD1204830
:100570004030016841F0805101601E49086840F434
:10058000404008601A48083003680360036843F479
:1005900000430360036843F4A0530360041F164B39
:1005A0002360136843F08073136013689B01FCD5CC
:1005B0000A6842F480320A604A68D203FCD50A68AD
:1005C00042F400320A604A689203FCD50B4A40F2BA
:1005D00005711160016821F003010160016841F0BB
:1005E000020101600168C1F381010229FAD11CBD39
:1005F0000038024000700040195A4007003C024099
:1006000010B51248016841F470010160104801689A
:1006100041F0010101600E4A0021083211600268B8
:100620000C4B1A400260031D0B4A1A60026822F448
:100630008022026006480C300160FFF777FF034913
:100640004FF000608039086010BD000088ED00E0C8
:1006500000380240FFFFF6FE10300024FEE702E003
:1006600008C8121F08C1002AFAD17047704700203D
:1006700001E001C1121F002AFBD1704710B5002A0A
:1006800006DA22F00042D21D22F00703102203E016
:10069000D21C22F003030C2223B19C188C4203D9F4
:1006A000012010BD012010BD0244026001444160E0
:1006B0008360C91AD018884202D90020106010BD8A
:1006C00010600246F6E70000FFF702FFFFF77EFD2D
:1006D000034A4FF002110348DFF80CC000DFFEE7C9
:1006E00030010020FD0300086D0C0008FEE7FEE766
:1006F000074801684FF0E020416100218161072136
:1007000001610448016841F07F4101604017704772
:10071000C00E000820ED00E070477047014651E828
:10072000000F28B1036841E80032002AF7D1704772
:10073000BFF32F8F7047000070B50C46002812D011
:100740004FF6FF71084D884204D22A6801461046D0
:1007500000F0F2F928684470044800F0DBF8BDE8C6
:10076000704000F07BBA70BD1C0000203C130020DC
:1007700010B50F480D4A41680E48136800688B4257
:1007800004D01160D388411E19449180918880B2B1
:1007900081420AD100201060054800F0BBF80146F4
:1007A000BDE81040024800F0EFB910BD0C00002079
:1007B0003C1300202400002070B51A4EF068002879
:1007C0002ED0B08A401EB082002523E0A06838B148
:1007D00061684160606810B1A16881606560A56072
:1007E00010482146183800F0CFF9A08AB08260780E
:1007F000042804D10C49E08A09880844A082012019
:10080000607084F82500E068F060E06808B1066177
:10081000E5602561B08A002802D1F468002CD5D1AA
:1008200070BD0000541300202400002070B5044661
:10083000002C0FD00E4DA1780126286882789142B5
:100840000FD900F0BFF9286846702046BDE8704017
:1008500000F004BA074800F05DF8BDE8704000F011
:10086000FDB966702146BDE87040024800F08CB9C1
:100870001C0000203C1300200321FFF75DBF000097
:1008800010B50446208B08432083618B6278062ACA
:1008900002D131EA000306D0052A14D1084212D051
:1008A00001EA0002628388432083204600F094F925
:1008B00001206070022084F825002146BDE8104028
:1008C000014800F061B910BD3C130020814202D301
:1008D00042688A4201D80120704750E8002F0A6020
:1008E00040E80012002AF8D1002070470120074993
:1008F000074A05E0431E51F82330002B04D0401C6A
:1009000013889842F6D90020704700002413002075
:10091000B40E00080146486842684A600A7800231D
:10092000022A05D0012A03D0032A01D04360704770
:1009300042680AB1916043608360704770B50446B5
:1009400015460020207001226270A17084F82410E6
:100950006060A060E06020612062A082E08220836D
:10096000608384F8250084F82600208D002803D1B8
:100970000448FFF7D3FE206329462046BDE87040B7
:1009800000F00EB8900400200348002101600349E4
:100990000988C180704700000C000020BC0E0008D0
:1009A00010B5028D9208002A03D10F4A1288C2F3B3
:1009B0008D02036B03EB82035A0700D51B1F403BDC
:1009C0004FF08072DA6399630022002443F82240DA
:1009D000521C0E2AFAD3C2691A62C3624163006BC9
:1009E0000249016010BD0000B80E0008A52E5AE2B1
:1009F0002DE9F041044688466068002704F10C05A3
:100A0000002802D0617802291DD008B1A089B8B3AE
:100A1000A089E189884249D2208904EB8000C0F88E
:100A20001080D5E85F0F401C81B2C5E8501F002838
:100A3000F7D12089401C80B22081E189884200D111
:100A40002781BDE8F08167702046FFF763FF064607
:100A500086F825702189F06904EB81010861D5E8E9
:100A60005F0F401C81B2C5E8501F0028F7D12089D4
:100A7000401C80B22081E18988420CD127810AE0A4
:100A8000FFE72046FFF746FF0646F069C0F8008002
:100A9000042186F8251001207070304600F09CF883
:100AA0003146BDE8F041044800F06EB8BDE8F041C1
:100AB0000320FFF71BBE00003C13002070B51B484D
:100AC000012102685170006800F07CF8184D6C78C4
:100AD00017E005EBC40148680278EAB1012A20D08A
:100AE00000F08EF8E878641C844200D1002410489D
:100AF000801CD0E84F1F491ECAB2C0E8412F002910
:100B0000F7D1A8780028E4D16C700A48FFF702FFFB
:100B1000BDE8704000F0A2B8098989B2FFF7B0FEC5
:100B2000E0E78968FFF764FFDCE700001C000020B5
:100B3000A01200203C13002010B5124AD368002BED
:100B400002D013469B8A06E0002313E0D4688CB1E0
:100B50002246948A23448B42F8D3D468C460D06080
:100B60000261C46804B12061591A8182908A401AD6
:100B7000908210BD0024C460D0600261C91A9182C5
:100B8000848210BD5413002030B500250278022A5B
:100B900003D0012A01D0032A00D101258B784268B5
:100BA00001E01046526812B194789C42F9D24A6032
:100BB00041601DB102B19160886030BD0020886045
:100BC00030BD000003494A684260002282604860EC
:100BD000704700003C13002010B5016900290ED0B9
:100BE000C268CA60C36800223BB18B8A848A2344EE
:100BF0008B82C3681961C26000E08A82026110BD05
:100C000010B54168002910D0FFF784FE0446204645
:100C1000FFF7E2FF01206070032084F825002146E1
:100C2000BDE810400348FFF7AFBF4188491C418031
:100C300010BD00003C13002006480068D0E90B10EE
:100C4000814203D300680449884202D00120FFF7A3
:100C50004DBD70471C000020A52E5AE20249486095
:100C600002214170704700001C0000202DE9F04770
:100C700005460E461746002000244249424A02E03B
:100C800041F82040401C13889842F9D33F4838224D
:100C900001883F48FFF7F2FC3E48008880B240F0F0
:100CA00000423D4801683D48FFF7E8FC3C48082207
:100CB00001883C480068FFF7E1FCDFF8EC904FF05A
:100CC000FF0889F80380A9F82840384A00214846DF
:100CD000FFF734FE36480421017044603548017046
:100CE000C46004618482D9F82C002030FFF768FAD0
:100CF0003148C0F80090022089F801002F480470A4
:100D000044702F490978C170FFF73EFE2D480168F5
:100D100041F47F01016000684FF07F4101EA00204B
:100D2000C043B0FA80F0C0F10800264914390968C0
:100D3000C1F30221814200DB481C224A121F1368C2
:100D40006FF08071814063F317011160FFF7D0FCF1
:100D50001D49086000280DDB00F1E02181F80084C6
:100D600000F01F02012191404011800000F1E020BD
:100D7000C0F800113A4631462846BDE8F047002346
:100D800000F064B824130020B40E0008D00E000850
:100D900030030020B80E0008D40E00089004002094
:100DA000DA0E0008080000206C130020EF0600088F
:100DB0003C130020541300201C000020A01200202F
:100DC000D80E000820ED00E01800002010B50C48F7
:100DD0000121026851700068FFF7F4FEFFF7C8FCBC
:100DE00008480168491C0160FFF7E6FC00F00EF8B6
:100DF0000548FFF78FFDBDE81040FFF72FBF00004B
:100E00001C000020240000203C13002070B50D4D74
:100E10002868002815D0A888401EA8800A4E0AE03D
:100E2000E088FFF77AFCA088A88020682860214627
:100E30003068FFF74BFDA888002802D12C68002CF1
:100E4000EED170BD28000020080000202DE9F041FF
:100E500007460D461646984615F0FF0F00D16D1C4B
:100E60001148FFF75BFC044620001BD02663280ACC
:100E70002085C4F81C80E9B23A462046FFF75EFDA3
:100E8000FFF734FD05460949681E41F82040E5702A
:100E90002046FFF7CBFC0648006880F8255028461E
:100EA000BDE8F0810020FBE7300300202413002080
:100EB0001C000020060000000002000105000100E7
:100EC0001FBF020001000000E80300000000000056
:100ED0005C010000100E000010000000490004003A
:100EE000000F000800000020300000005E0600082F
:100EF000300F000830000020781700006E06000850
:100F000000000000000000000000000000000000E1
:100F100000000000000000000000000000000000D1
:100F200000000000000000000000000000000000C1
:04000005080001AD41
:00000001FF
